:020000040000FA
:0800000000008A150A16322FD8
:0C3E54008A150A162A2F8A018A150A1600
:023E60002D2F04
:0C3E6400031E2D2F9030980083161815B7
:103E700098161930990083120330FA00113090001F
:103E80000C148727EA3A031D592FFA01602F872760
:103E9000F900E33A0319622F7908EA3A0319602F0F
:103EA0007908ED3A031D472FE43082270330FA00EA
:103EB0008727900198018316980183128C012D2F7A
:103EC000EB30802F8727F6008727F5008727F10042
:103ED000FB008727F300F201203084008727800051
:103EE000F207840AFB0B6E2F72087306E830031D7D
:103EF000802FE730822799270038E4300319E53016
:103F00008227472F64000C1E822F9900080064004E
:103F10007A080319952F0C1C952F1010FA0B912F6E
:103F200000340C103C308F0010148C1E872F1A08A0
:103F300008007508F7007608F800FB010230F4006D
:103F400071087B02031801347B08203E8400213075
:103F50007802031783160319B72F8C1783011F30BC
:103F600078022A30031977020318F92FB92F8C131E
:103F70008301770803178D0003137808031DCE2FE4
:103F8000043077020318CE2F031783168C1FCB2F14
:103F900083122E308D0783011F30CF2F780803172F
:103FA0008F0000088E00840A00088C0083160C1510
:103FB00055308D00AA308D008C1400000000830164
:103FC00064000D1EE02F0D12831603170C110C1444
:103FD000000000008312840300080E06031DF52F65
:103FE000840A00080C060319F92F8301F40BA02F93
:103FF000003403130230FB07F70A0319F80A9E2F57
:084000000200010000000000B5
:02400E00B13FC0
:00000001FF
